:08000000803102288731F12F45
:100E5E00FE0012001E00FE0B302F003462305101D6
:100E6E008D008F01910102309300920108004F0115
:100E7E0096019701980199019A019B019C019D0190
:100E8E00080087313E2787318731672787318731C1
:100E9E00352787310800F1005F2FF2010130F00095
:100EAE007008F20764307202031C5E2F5F2F552FFD
:100EBE000130F102710A031D652F662F542F0800B1
:100ECE004001980199019A013E309200D030930072
:100EDE00FF309400FF307E01CE00F030C30037307B
:100EEE00B800C401B901CF01BA01C501D001373034
:100EFE00BB00F030C600FF30D1003F30BC00F030F8
:100F0E00C700FF30D2000800873148278731A03054
:100F1E008600003087002030840000308500383095
:100F2E00F30016001A00F30B982F4001D801D901D7
:100F3E002008F3007308DA005808013ED80000308C
:100F4E00593DD9008D160C145A0887315227873116
:100F5E0040018D120C105A088731522787319C2F71
:100F6E008031022815340234153402341934023417
:100F7E00193402341A3402341A3402341934013456
:100F8E00183402341834023417340234173402344D
:100F9E001634023416340234153401341934023442
:100FAE00193402341834023418340234173402342B
:100FBE00173402341634013419340234193402341D
:100FCE001834023418340234163402341534013411
:100FDE0000340034B930840087308500A03086009C
:100FEE0000308700383087312F2787314001873115
:020FFE008B2F37
:020000040001F9
:0A000E00EC3FFF3F9F3FFF3FFF3F25
:00000001FF
