:04000000803114280F
:100008007E1480314E01161E0A280B2812280C1E59
:100018000E280F28122886314E2680317E100900BE
:10002800803116284001EF01A0308400003085009F
:10003800283086312D2680317E1040018531752D7E
:100048004001BF003008C4003108C5003208C600AE
:100058003308C7003408C8003508C9003608CA0084
:100068003708CB004430860000308700473FB8008F
:10007800B81B3F2841280130422800304001B90010
:10008800BA013908C2003A08C300420843040319F8
:100098004E284F286D28C409C509C609C709C809CB
:1000A800C909CA09CB09C40A031D6D28C50A031D5D
:1000B8006D28C60A031D6D28C70A031D6D28C80AC6
:1000C800031D6D28C90A031D6D28CA0A031D6D2862
:1000D800CB0A4101A51B712872287628FD30A60598
:1000E800FF30A7052508803A4001B8008030380263
:1000F800031D812801304101240203188428852822
:100108008B2801304001BD000030BE00932841011A
:1001180025084001BE00410124084001BD004101FD
:1001280023084001C100410122084001C0004208E3
:100138004304031DA028A128A6284101261DA5289F
:10014800A628AB28FF304001C007FF30C13D1F3053
:100158004001CC000030CD004101C7011B29FF3010
:100168004001CC07FF30CD3D0A30A000A101A2011B
:10017800A301A401A501A601A7014408A8004508F8
:10018800A9004608AA004708AB004808AC0049087F
:10019800AD004A08AE004B08AF008231932280318F
:1001A80040012108F4002008F3008531BE25803184
:1001B8007308303E4001B8004C08A83E860087010D
:1001C80038088100FF30BD07FF30BE3DFF30C00753
:1001D800FF30C13D0A30A000A101A201A301A40182
:1001E800A501A601A7014408A8004508A9004608DA
:1001F800AA004708AB004808AC004908AD004A0807
:10020800AE004B08AF0081319221803140012008B7
:10021800C4002108C5002208C6002308C700240816
:10022800C8002508C9002608CA002708CB004001D5
:100238004D08803AB80080303802031D2529013066
:100248004C02031C28292929562940014408450441
:1002580046044704480449044A044B04031D35294D
:100268003629B3283E08803AB80080303802031D8A
:100278003F2901303D02031842294329B328400190
:100288004108803AB80080303802031D4D290130FA
:100298004002031C5029512956294101A618552905
:1002A8005629B328400142084304031D5C295D29EF
:1002B80062294101261D612962297E29FF304001FA
:1002C800CC07FF30CD3D42084304031D6C296D293E
:1002D80072292B30BB000030BC0076292D30BB00C2
:1002E8000030BC003B08B8004C08A83E86008701D7
:1002F8003808810040014C08A83EB8003808A4001E
:100308004108A6004008A5003F08843158248031E0
:1003180040012508B1002408B0000800F20120308F
:10032800860000308700473FF000F01F9C299D2978
:10033800BE294001A009A109A209A309A409A50988
:10034800A609A709A00A031DBC29A10A031DBC29E7
:10035800A20A031DBC29A30A031DBC29A40A031D64
:10036800BC29A50A031DBC29A60A031DBC29A70A86
:10037800F201F20A2830860000308700473FF0007B
:10038800F01FC729C829EB294001A809A909AA090A
:10039800AB09AC09AD09AE09AF09A80A031DE729E5
:1003A800A90A031DE729AA0A031DE729AB0A031DA9
:1003B800E729AC0A031DE729AD0A031DE729AE0AA0
:1003C800031DE729AF0A0130F0007008F206733008
:1003D8008600003087000830F00000301E00F00B67
:1003E800F2294001200821042204230424042504BE
:1003F800260427040319012A022A5E2AF101F10AB8
:10040800112AA035A10DA20DA30DA40DA50DA60DB1
:10041800A70D0130F0007008F107A71F142A152A4C
:10042800052AF335F40DF50DF60DF70DF80DF90D58
:10043800FA0D27082F02031D3B2A26082E02031D4A
:100448003B2A25082D02031D3B2A24082C02031DE4
:100458003B2A23082B02031D3B2A22082A02031DDC
:100468003B2A21082902031D3B2A20082802031CD5
:100478003E2A3F2A502A2008A8022108A93B220820
:10048800AA3B2308AB3B2408AC3B2508AD3B260818
:10049800AE3B2708AF3B7314A736A60CA50CA40CDB
:1004A800A30CA20CA10CA00C0130F102031D5D2AC3
:1004B8005E2A152A72080319622A632A812AF30917
:1004C800F409F509F609F709F809F909FA09F30A27
:1004D800031D812AF40A031D812AF50A031D812AB6
:1004E800F60A031D812AF70A031D812AF80A031D4B
:1004F800812AF90A031D812AFA0A73084001A0001B
:100508007408A1007508A2007608A3007708A40063
:100518007808A5007908A6007A08A7000800F20163
:100528002830860000308700473FF000F01F9D2AE2
:100538009E2ABF2A4001A809A909AA09AB09AC0942
:10054800AD09AE09AF09A80A031DBD2AA90A031DF2
:10055800BD2AAA0A031DBD2AAB0A031DBD2AAC0A7F
:10056800031DBD2AAD0A031DBD2AAE0A031DBD2AFF
:10057800AF0AF201F20A2030860000308700473FB8
:10058800F000F01FC82AC92AE82A4001A009A109D9
:10059800A209A309A409A509A609A709A00A031D78
:1005A800E82AA10A031DE82AA20A031DE82AA30AC9
:1005B800031DE82AA40A031DE82AA50A031DE82A40
:1005C800A60A031DE82AA70A4001200821042204DC
:1005D800230424042504260427040319F42AF52AED
:1005E800482BF101F10A042BA035A10DA20DA30D92
:1005F800A40DA50DA60DA70D0130F0007008F10798
:10060800A71F072B082BF82A27082F02031D262BC4
:1006180026082E02031D262B25082D02031D262B36
:1006280024082C02031D262B23082B02031D262B2E
:1006380022082A02031D262B21082902031D262B26
:1006480020082802031C292B2A2B3A2B2008A80251
:100658002108A93B2208AA3B2308AB3B2408AC3B52
:100668002508AD3B2608AE3B2708AF3BA736A60CAE
:10067800A50CA40CA30CA20CA10CA00C0130F10237
:10068800031D472B482B082B720803194C2B4D2BA5
:100698006B2BA809A909AA09AB09AC09AD09AE09D0
:1006A800AF09A80A031D6B2BA90A031D6B2BAA0A05
:1006B800031D6B2BAB0A031D6B2BAC0A031D6B2BA5
:1006C800AD0A031D6B2BAE0A031D6B2BAF0A40014D
:1006D8002808A0002908A1002A08A2002B08A300C6
:1006E8002C08A4002D08A5002E08A6002F08A70096
:1006F80008004001DD004E0886008701403FD00019
:10070800413FD10050088400510885001200253A65
:10071800031D8F2B902B342C4E0886008701013047
:10072800810741310318810A4101A201A301A601F1
:10073800A701FF30A400FF30A50040014E08860045
:100748008701403FD000413FD10050088400510844
:1007580085001200643A0319B22BB32BC42B4E0840
:1007680086008701403FD000413FD10050088400F7
:10077800510885001200693A031DC32BC42BFF2BB7
:100788004E08860087010130810741310318810A2C
:100798004F0886008701010884008501023081071F
:1007A800003FD000013FD1005008D5005108D600C5
:1007B800890D893B8909D700D800D900DA00DB0008
:1007C800DC005508B0005608B1005708B2005808B8
:1007D800B3005908B4005A08B5005B08B6005C08B5
:1007E800B7005D0880312420833140013108CF00F3
:1007F8003008CE00572C4E0886008701403FD000B5
:10080800413FD10050088400510885001200253A64
:10081800031D0F2C102C292C4E088600870101304F
:10082800810741310318810A2530F2000030F300B6
:100838005D08D0005008F4008431B12483310130C0
:100848004001CE000030CF00572C4E0886008701AB
:100858000130810741310318810ACE01CF01572C9D
:100868004E0886008701403FD000413FD100500824
:100878008400510885000008D200D3015208F20014
:100888005308F3005D08D4005408F4008431B124FF
:10089800833140014E0886008701013081074131CC
:1008A8000318810A232C08004001AC004101261CD2
:1008B8005E2C5F2C682C40012C08A7002708FA0042
:1008C800240885314D2584314001A61B6C2C6D2CE4
:1008D800722C2608AB002508AA00742CAA01AB01CB
:1008E800A801A901882C2030F2000030F300400153
:1008F8002C08A7002708F4008431B1248431013082
:100908004001A8070030A93D2908803AA7002B0814
:10091800803A2702031D922C2A082802031C952CD2
:10092800962C772C410126189A2C9B2CA42C40013C
:100938002C08A7002708FA00240885314D258431A2
:10094800400124088531D825843140012A087007E0
:10095800A4002B08713DA500080074080319B52CE4
:10096800B62CBB2C7408031DBA2CBB2CC02C7208E7
:10097800863133268431EF2C7408033E86008701C4
:10098800160001040319C92CCA2CE72C7408033E6D
:1009980086008701403FF500413FF600740A860053
:1009A8008701403FF700413FF8007808803AF90096
:1009B8007608803A7902031DE32C7508770203183C
:1009C800E62CE72CEF2C740A86008701013081079A
:1009D80041310318810A08004001E3005F08E5007F
:1009E8005E08E4004101A001A1010E2D6430E10080
:1009F8006108CE006008E2006208CF006308833116
:100A08007D23843140014E084101A00740014F0871
:100A18004101A13D40016408840065088500120079
:100A2800031D172D182DFA2C410121084001DF0064
:100A3800410120084001DE000800400198019901A9
:100A48009A013F309200703093007F309400BF309D
:100A58007E01CE00F030C3003730B800C401B901C0
:100A6800CF01BA01C501D0013730BB00F030C60054
:100A7800FF30D1003F30BC00F030C700FF30D2005B
:100A88004E0116160F307E019F0016307D01CB00F7
:100A980008004001A300A101A201652D2008FB0068
:100AA800FC017B08F2007C08F3007A08FD007D0851
:100AB800F4008431B124853101304001A1070030B0
:100AC800A23D21082307FB007B0886008701010857
:100AD800FC007C08A0002008031D732D742D522DE6
:100AE800080086310326853140019A17ED01EE0191
:100AF8004B304001E6008630E7006E08E9006D08DB
:100B0800E8008531F125853101304001ED070030DD
:100B1800EE3D6E08803AEC0080306C02031D962D85
:100B280064306D02031C992D9A2D7C2D8031142878
:100B3800083042019F0090309D0024309E001930FB
:100B48009B009C010030F0000030F10086313F2608
:100B580085310030F0000030F100863139268531CA
:100B68000030F0000030F100863145268531400123
:100B7800EF0108007408803AF50080307502031D03
:100B8800C72D013073020318CA2DCB2DD72D730939
:100B9800F5007409F600F50A0319F60A7508F3005A
:100BA8007608F400D72D0800F4007408F2007208E3
:100BB800F300E22D0130F2007208F4077408860091
:100BC80087010108031DE92DEA2DDE2D7308740243
:100BD800F000F101F01BF103080068304001EA0061
:100BE8006A08EB006708DF006608DE006B30EA0081
:100BF8006A08E00000308431F0248531080086312D
:100C08001A2686318531212586318631242686317A
:100C180085319C2586310800F0004E010F1E152EE7
:100C2800162E112E700842019A0008004F019601F5
:100C38009701980199019A019B019C019D01080067
:100C4800623051018D008F019101023093009201B1
:100C58000800640080010131890B2E2E0034F10058
:100C68007108863110268631080071084101CB00D1
:100C78007008CA00080071084101CD007008CC0056
:100C8800080071084101C9007008C800080025342F
:060C980064340034080082
:020000040001F9
:0A000E00EC3EFF3F9F3FFF3FFF3F26
:00000001FF
