:04000000803114280F
:100008007E1480314E01161E0A280B2812280C1E59
:100018000E280F2812288131C62180317E10090050
:10002800803116288131DB218031AF008131DC211C
:100038008031B0008131DD218031B1008131DE2194
:100048008031B200B501B601A030840000308500CF
:1000580040308131CF2180317E10400181318729A4
:10006800E0307305F9003F307405FA0000308B1B4F
:100078000130FB007A087406031D442879087306CA
:10008800031947284828492892288B137408F10037
:100098007308F00081312621803150011E131E158E
:1000A8009E16FC01730850019A0074089B007C3569
:1000B8007507F60076088600870101089C007C35E4
:1000C8007507F600760886008701403FF700413F34
:1000D800F80078089D001F307C06031D74287528D9
:1000E80076289E1255309F00AA309F009E1400006B
:1000F80000000130F3070030F43D0130F6007608C7
:10010800FC0720307C02031C8A288B2856285001C3
:100118001E117B0C031C8B1303188B170800E0308F
:1001280040012005A6003F302105A70020081F39FF
:10013800FD007D08A500A80128082607F00027086B
:100148000318270AF1008131422180314001283506
:100158002207FD007D08860087017008C03F7108EE
:10016800C13F0130FD007D08A80720302802031C8C
:10017800BE28BF28A02825352207FD007D08860057
:1001880087012308C03F2408C13F2708F400260838
:10019800F3002208FD007D08F5008031342080310D
:1001A80008004001980199019A013F309200D0302F
:1001B8009300FF309400FF307E01CE00F030C30082
:1001C8001730B800C401B901CF01BA01C501D00187
:1001D8003730BB00F030C600FF30D1003F30BC00E4
:1001E800F030C700FF30D200BF12BE16BD16DF3098
:1001F8004001AA000130AB008131D52180314E0188
:100208001616080000308B1B01304001AC008B1320
:100218002A0850019A0040012B0850019B001E1328
:100228001E140000000040012C0C031C8B13031843
:100238008B1750011D084001AB0050011C084001FC
:10024800AA00080000308B1B0130F2008B137008E5
:1002580050019A0071089B001E131E161E1555307A
:100268009F00AA309F009E140000000050011E113C
:10027800720C031C8B1303188B17080000308B1BA0
:100288000130F2008B13700850019A0071089B002E
:100298001E131E1400000000720C031C8B1303189D
:1002A8008B1750011D08F1001C08F00008004001E0
:1002B8003008AB002F08AA008131062181314001A6
:1002C8002B08AE002A08AD002D186B296C296F2960
:1002D8009912991670299916080040013008A10052
:1002E8002F08A000A030A9002908A2003208A40005
:1002F8003108A30080319320813101304001B107DA
:100308000030B23D08008131A92181318B170B17CC
:1003180071304001AA000130AB008131D521813113
:1003280081315B21813194298031142840013308BF
:1003380034040319A029A129A62934088A003308FE
:100348000A0081317E01BF1208008131B321813159
:100358008031D52081318131BD21813108004F01A3
:1003680096019701980199019A019B019C019D01B1
:100378000800623051018D008F0191010230930015
:10038800920108007E01BF1ECA29CB29CE298131DE
:100398009A2181310800640080010131890BD0293C
:1003A800003440012B08B4002A08B3000800A03428
:0803B800203411340034080068
:020000040001F9
:0A000E00EC3FFF3F9F3FFF1FFF3F45
:00000001FF
