:0400000080312528FE
:100008007E1480314E01961E0A280B2813288C1E58
:100018000E280F2813288131C321803123280B1F74
:100028001628172823289A1C1A281B282328901CCE
:100038001E281F28232882311F22803123287E1062
:10004800090080312728D2308400813085002F3084
:100058008600003087000E3082310D228031FA018F
:10006800FB01C101C2017E1040018031CB28400153
:10007800A201F51F402841284E28F209F309F40986
:10008800F509F20A0319F30A0319F40A0319F50A20
:10009800A201A20AF91F512852286128F609F70976
:1000A800F809F909F60A0319F70A0319F80A0319EE
:1000B800F90A0130A0002008A2060030A60000308E
:1000C800A5000030A4000030A30075087404730470
:1000D8007204031970287128B228A101A10A7F2887
:1000E8000130F235F30DF40DF50D890B752801304B
:1000F800A0002008A107F51F822883287428013052
:10010800A335A40DA50DA60D890B842875087902C1
:10011800031D982874087802031D9828730877022D
:10012800031D982872087602031C9B289C28A52882
:100138007208F6027308F73B7408F83B7508F93B38
:1001480023140130F536F40CF30CF20C890BA628B5
:100158000130A102031DB128B228832822080319FF
:10016800B628B728C228A309A409A509A609A30A7D
:100178000319A40A0319A50A0319A60A2608F500F3
:100188002508F4002408F3002308F2000800813150
:10019800B02180314001AD01AE0140012D352F3E27
:1001A80086008701403FA700413FA8002708F200CA
:1001B8002808F300F401F5010030F9000F30F800C9
:1001C8004230F7004030F60080313B20803175081E
:1001D8004001AC007408AB007308AA007208A900BB
:1001E8000030F5000030F4000030F3004030F20039
:1001F8002C08F9002B08F8002A08F7002908F6004F
:1002080080313B20803140012D352F3E860087010B
:100218007208C03F7308C13F0130AD070030AE3DE2
:100228002E08803AA70080302702031D1D290730B9
:100238002D02031C20292129D1288B173230F200E6
:100248000130F30082311922803182313722803126
:100258008231302280312F29803125287A352F3E6E
:100268008600870101088231252281310130FA0791
:100278000030FB3D07307A067B04031D44294529DD
:100288004729FA01FB0103104001981C03140318C5
:100298004E29512940019814532940019810031000
:1002A800181C0314031859295C29400118145E29E5
:1002B8004001181008004001980199019A013C304A
:1002C8009200D0309300FF309400FF307E01CE00C2
:1002D800F030C3003730B800C401B901CF01BA010A
:1002E800C501D0013730BB00F030C600FF30D10067
:1002F8003F30BC00F030C700FF30D2000D309D0009
:10030800080001304501900020308F009101223013
:100318008D008C014E0190109A143A30F200023090
:10032800F300823113228131C83045018E00080064
:1003380047304B019F0079309D009C014E018C1283
:1003480096163B30F2000230F300823119228131D7
:1003580087304B019E0008008131FA2181318131BB
:100368005F2181318231042281318131E021813163
:1003780081318521813181319C21813108004E01F3
:100388008C1240013D083E040319CB29CC29D12900
:100398003E088A003D080A0081310800043401340F
:1003A80025340134493401345D340134883401344E
:1003B800B8340134EE340134803047018E001B30EC
:1003C8008D00C0308C0044011F08F33904389F00A9
:1003D800080040013F0840040319F329F429F929CA
:1003E80040088A003F080A00813108004F01960141
:1003F8009701980199019A019B019C019D010800B0
:10040800623051018D008F019101023093009201F9
:100418000800FE0012001E00FE0B0E2A00347308AE
:100428004001C0007208BF00080073084001BE0008
:100438007208BD0008004E0190108131ED21823113
:100448000800F100710882312B2282310800F00087
:10045800700845018D00080082313422823108007D
:1004680045018E1708004B019E1708000800080078
:020000040001F9
:0A000E00EC3FFF3F9F3FFF3FFF3F25
:00000001FF
