:0420000090313A28B9
:102008007E1490310B1F09280A2838284E011A1C03
:102018000E280F283828101C122813283828903129
:10202800A320903103104001181C031403181D2825
:102038002028400118142228400118100310981C69
:102048000314031828282B28400198142D28400130
:1020580098100310991E03140318332836284001DA
:1020680099163828400199127E10090040019031D4
:102078003D28A03084000030850040309031F620A3
:1020880090317E10400190318A28400198019901D1
:102098009A013C309200D0309300FF309400FF301A
:1020A8007E01CE00F030C3003730B800C401B9015A
:1020B800CF01BA01C501D0013730BB00F030C600EE
:1020C800FF30D1003F30BC00F030C700FF30D200F5
:1020D800080044018F01900101309100FC308D000F
:1020E800D3308C004E01101044010D08F8000C0884
:1020F800F7004E011A140130F2001130F30090314C
:10210800FC209031213044018E0008009031C92014
:102118009031D630F2001030F3009031FC2090312D
:102128008B170B1720308600003087004030F400F2
:1021380000301E00F40B9D28A02890313A284E014B
:1021480010107808F1007708F0009031B82090312D
:10215800750876040319B128B228B72876088A00CA
:1021680075080A009031080044010E1DBC28BD28DE
:10217800C4280E1071088D0070088C000E14C82831
:1021880071088D0070088C0008009031E3209031B0
:102198009031492090319031ED20903190316D206F
:1021A8009031080003104001181C03140318DD289F
:1021B800E02840011814E2284001181008004F01D7
:1021C80096019701980199019A019B019C019D0133
:1021D8000800623051018D008F0191010230930097
:1021E80092010800640080010131890BF72800344E
:0C21F8007308F6007208F50008000800EB
:020000040001F9
:0A000E00EC3FFF3F9F3FFF3FFF3F25
:00000001FF
