:0420000090313A28B9
:102008007E1490310B1F09280A2838284E011A1C03
:102018000E280F283828101C122813283828903129
:10202800CD20903103104001181C031403181D28FB
:102038002028400118142228400118100310981C69
:102048000314031828282B28400198142D28400130
:1020580098100310991E03140318332836284001DA
:1020680099163828400199127E10090040019031D4
:102078003D28A03084000030850040309131252172
:1020880090317E1040019031B42803104001181C93
:1020980003140318502853284001181455284001E8
:1020A80018100310981C031403185B285E284001BD
:1020B80098146028400198100310991E03140318FF
:1020C80066286928400199166B2840019912323018
:1020D800F0000030F1009031E2209031080040011A
:1020E800980199019A013C309200D0309300FF305A
:1020F8009400FF307E01CE00F030C3003730B800C6
:10210800C401B901CF01BA01C501D0013730BB0004
:10211800F030C600FF30D1003F30BC00F030C700BF
:10212800FF30D200080044018F0190010130910076
:10213800FC308D00D3308C004E01101044010D0886
:10214800F8000C08F7004E011A143030F200113074
:10215800F30091312B219031213044018E00080089
:102168009131052190314930F2001030F30091315E
:102178002B2190318B170B172030860000308700F9
:102188004030F40000301E00F40BC728CA289031F4
:102198003A284E0110107808F1007708F0009031C5
:1021A800F4209031750876040319DB28DC28E1282F
:1021B80076088A0075080A0090310800E72853302D
:1021C800890BE42800000130F0020030F13B700A6E
:1021D800031DF228710A031DF228F328E3280800DA
:1021E80044010E1DF828F92800290E1071088D00E9
:1021F80070088C000E14042971088D0070088C007A
:10220800080091311221913190317320913191312F
:102218001C21913190319720913108004F0196018E
:102228009701980199019A019B019C019D01080061
:10223800623051018D008F019101023093009201AB
:102248000800640080010131890B262900347308D5
:0A225800F6007208F5000800080007
:020000040001F9
:0A000E00EC3FFF3F9F3FFF3FFF3F25
:00000001FF
