:08000000803102288731F12F45
:100E0200FE0012001E00FE0B022F00346230510160
:100E12008D008F01910102309300920108004F0171
:100E220096019701980199019A019B019C019D01EC
:100E320008006C304B019F00F3309D009C014E0175
:100E42008C1283304B019E000800903047018E00C7
:100E520030308D0080308C0044011F08F339043893
:100E62009F0008000330450190008F019101C230BC
:100E72008D008C014E019010FF3045018E0008005C
:100E820087311027873187316927873187310727D3
:100E92008731873126278731873133278731873159
:100EA2001A2787310800F100612FF2010130F000AA
:100EB2007008F20764307202031C602F612F572FF3
:100EC2000130F102710A031D672F682F562F0800A7
:100ED2004001980199019A013F309200D03093006D
:100EE200FF309400FF307E01CE00F030C300373077
:100EF200B800C401B901CF01BA01C501D001373030
:100F0200BB00F030C600FF30D1003F30BC00F030F3
:100F1200C700FF30D2000800873141278731A03057
:100F22008600003087002030840000308500383091
:100F3200F30016001A00F30B9A2F4001D801D901D1
:100F42002008F3007308DA005808013ED800003088
:100F5200593DD9008D165A088731542787314001EF
:100F62008D125A088731542787319E2F80310228EB
:100F7200153402341534023419340234193402346B
:100F82001A3402341A340234193401341834023453
:100F9200183402341734023417340234163402344B
:100FA200163402341534013419340234193402343B
:100FB2001834023418340234173402341734023429
:100FC2001634013419340234193402341834023418
:100FD2001834023416340234153401340034003427
:100FE200B930840087308500A03086000030870049
:0E0FF2003830873101278731400187318D2F3C
:020000040001F9
:0A000E00EC3FFF3F9F3FFF3FFF3F25
:00000001FF
