:04000000803188289B
:100008007E1480314E01991E0A280B2817288F1E4E
:100018000E280F2817288F1240015A088A005908FD
:100028000A0080314C28961E1A281B283A288C1E54
:100038001E281F283A2803104001181C031403180F
:1000480026282928400118142B28400118100310CD
:10005800981C0314031831283428400198143628B2
:100068004001981082315F2280314C280030F00026
:100078001030F10082310B228031700A3F300319B1
:1000880071060319482849284C28903104284C281F
:1000980053012F03031D512852288628AF014E0112
:1000A800991E5728582863288F1E5B285C286328C8
:1000B80040015A088A0059080A0080315328961EC0
:1000C8006628672853288C1E6A286B285328031033
:1000D8004001181C031403187228752840011814CD
:1000E8007728400118100310981C031403187D2862
:1000F80080284001981482284001981082315F229C
:10010800803153287E10090080318A28FC01FD01C6
:1001180049308400003085001030823193228031CC
:100128004101A601A7017E1040018031FA28F6019D
:10013800F11F9F28A028A728F009F109F00A031940
:10014800F10AF601F60AF31FAA28AB28B428F20927
:10015800F309F20A0319F30A0130F4007408F606E9
:10016800F701F801700871040319BB28BC28EB28B3
:10017800F501F50AC8280130F035F10D890BC028C2
:100188000130F4007408F507F11FCB28CC28BF28EC
:100198000130F735F80D890BCD2871087302031D5E
:1001A800D72870087202031CDA28DB28E0287008B8
:1001B800F2027108F33B77140130F136F00C890B29
:1001C800E1280130F502031DEA28EB28CC2876083F
:1001D8000319EF28F028F528F709F809F70A031991
:1001E800F80A7808F1007708F0000800823139220F
:1001F800803100304101A8000A30A90082317822FC
:10020800803100304101A8000F30A90082318A22D4
:1002180080318B170B178231BE22803140011810B4
:1002280098109A135301A00150010C105301AF010B
:1002380003104001181C0314031823292629400120
:1002480018142829400118100310981C03140318C7
:100258002E29312940019814332940019810C830BB
:100268004101A8000030A90082314C2280311C29AC
:100278008031882841012708493E8600870181018D
:1002880042011D1D48294929542941012708493E91
:1002980086008701811425088A0024080A00813114
:1002A80042019D1C58295929642941012708493EC2
:1002B80086008701011523088A0022080A00813177
:1002C80041012708493E86008701010803196D2965
:1002D8006E29742921088A0020080A0081317729AB
:1002E8008131F121813108004E0199123E304101DE
:1002F800A8000130A90082318A22813108304201E8
:100308009F0090309D0024309E000C309B009C0183
:10031800C8304101A8000230A9008231A5228131EC
:10032800B6304101A8000230A90082319F228131F4
:10033800BA304101A8000230A9008231AB228131D4
:100348004101A601A701FD01FC014E019916080013
:100358004001980199019A013C3092007030930055
:100368007F309400BF307E01CE00F030C3003730BC
:10037800B800C401B901CF01BA01C501D0013730B5
:10038800BB00F030C600FF30D1003F30BC00F03079
:10039800C700FF30D2000F309F0016307D01CB0020
:1003A800080000308B1B0130F2008B1370085001DD
:1003B8009A0071089B001E131E161E1555309F00CB
:1003C800AA309F009E140000000050011E11720CFC
:1003D800031C8B1303188B17080042011908F0003F
:1003E80041012708513E86008701700881000130CD
:1003F800F0007008A70708302702031C042A052A02
:10040800062AA7010130F0007008FC070800003038
:100418008B1B0130F2008B13700850019A00710891
:100428009B001E131E1400000000720C031C8B138B
:1004380003188B1750011D08F1001C08F000080074
:1004480044304B019F00E9309D009C014E018C1205
:100458009616C7304101A8000230A90082317822DF
:10046800823180304B019E00080082316E22823139
:100478008131AC21823182318122823182319922CB
:1004880082318231242282318131782182310800FF
:10049800512A5330890B4E2A000001304101A8022D
:1004A8000030A93B280A031D5D2A290A031D5D2A7D
:1004B8005E2A4D2A08004E018C1240015B085C043C
:1004C8000319672A682A6D2A5C088A005B080A00F3
:1004D800823108004F0196019701980199019A010C
:1004E8009B019C019D010800410129084001DC0095
:1004F800410128084001DB000800623051018D00ED
:100508008F019101023093009201080041012908EE
:100518004001DA00410128084001D90008006400C0
:1005280080010131890B942A0034183050018C0065
:1005380017308D00080041012908A3002808A200EF
:10054800080041012908A5002808A4000800410165
:100558002908A1002808A0000800F00070084B0135
:100568009D00080042011D121D1608008131F1216D
:10057800823108004B019E1308004B019E130800AE
:0A0588004B019E1708000800080050
:101400000230F0000030F100520154084001AB00FE
:10141000AC012B08F2002C08F30080319B208A31AC
:1014200070084001AD002D08C8005301A001400123
:10143000C601C701E9308231B1228A318231C1222D
:101440008A3152015008031D262A272AFD2A4130DD
:101450005106031D2C2A2D2AB62A40014835553E37
:101460008600093087004835563E840009308500E3
:101470000008BF000108BE004808AB00AC01AB3556
:10148000AC0D2B08053EFA0000302C3DFB0050301F
:101490008E3100268A317B084001C7007A08C600D9
:1014A0003F084706031D562A3E084606031D592AD3
:1014B0005A2AFD2A520152084001C3005201530822
:1014C0004001C200C401C5017E2A40014435563E98
:1014D0008400093085000008AB004435553E840087
:1014E0000930850044352E3E860087010008C03F44
:1014F0002B08C13F0130C4070030C53D4508803A84
:10150000AB0080302B02031D872A48084402031CCD
:101510008A2A8B2A652A4001C001C101A82A4001FC
:101520004308F1004208F00040352E3E8600870156
:10153000403FF200413FF3008D3100258A310130F8
:101540004001C2070030C33D0130C0070030C13D3B
:101550004108803AAB0080302B02031DB12A4808B5
:101560004002031CB42AB52A8F2AFD2A52305106A4
:10157000031DBB2ABC2ADB2A53084001C7005201C5
:1015800052084001C6000230FA000030FB00503023
:101590008E3100268A31400147087B06031DD22A7E
:1015A00046087A06031DD52AD62AFD2A50010C14B6
:1015B0008B130B13DA2A54305106031DE02AE12A5B
:1015C000FD2A53084001C300520152084001C200E5
:1015D00010304302003003194202031CF02AF12AA2
:1015E000FD2A5301AF01AF0A40014308F100420850
:1015F000F0008131D5218A31FD2A1F305201500679
:10160000031D032B042B352B1F305106031D092B03
:101610000A2B352B53084001C700520152084001E4
:10162000C6000230FA000030FB0050308E31002638
:101630008A31400147087B06031D202B46087A06A5
:10164000031D232B242B352B0030F0001030F1002C
:1016500082310B228A31700A3F3003197106031957
:0C166000322B332B352B90310028080072
:101A000000308B1B0130F4008B1350011E131E1588
:101A10009E1670089A0071089B0072089C0073085B
:101A20009D009E1255309F00AA309F009E1400001A
:101A3000000050011E11740C031C8B1303188B172C
:021A400008009C
:101A8000F300F401F501F6017308F000750A492D21
:101A9000F036890B482D70080139F1007508073CB4
:101AA000890A532DF135890B522D7108F200720805
:101AB000F4040130F5070030F63D7608803AF00076
:101AC00080307002031D662D08307502031C692DDD
:081AD0006A2D442D7408080082
:101B4000F601F701F801F9017108F3007008F200DD
:101B5000780AAC2DF336F20C890BAA2D01307205F0
:101B6000F40000307305F50078080F3C890ABA2D9F
:101B7000F435F50D890BB82D7408F6047508F704D3
:101B80000130F8070030F93D7908803AF2008030E2
:101B90007202031DCD2D0F307802031CD02DD12DE4
:0C1BA000A42D7708F1007608F000080082
:101C00004001A500FF30A900FF30AA007B08803A00
:101C1000A00080302002031D0F2E01307A0203182D
:101C2000122E132E142E792E40012508860009301D
:101C300087000108A0002008A8000130A0002008AB
:101C4000A50728088D3140258E314001A0002008CD
:101C5000A800A601A70126082804A0002708A100C3
:101C60002008A100A0012008A6002108A70026083E
:101C70002906A90027082A06AA00A301A4014001F9
:101C8000AA1F432E442E512E2A08A1002908A00085
:101C9000A035A10D05302006A90080302106AA003C
:101CA000562E0130A935AA0D890B522E0130A307FB
:101CB0000030A43D2408803AA00080302002031D9B
:101CC000632E08302302031C662E672E3F2EFF3042
:101CD000FA07FF30FB3D7B08803A4001A0008030CE
:101CE0002002031D752E01307A020318782E792EFA
:101CF000142E40012A08F1002908F0008D31A0259A
:101D00008E3171084001AA007008A9002A08FB0062
:061D10002908FA0008009A
:101E00008231C1228F3142011908F10053012008AB
:101E1000503E860009308700710881000130F100D2
:101E20007108A007E9308231B1228F318231C4229A
:041E30008F310800E6
:020000040001F9
:0A000E00EC3FFF3FAC0FFF3FFF3F48
:00000001FF
