:04000000803118280B
:100008007E1480310B1F09280A2816284E019A1CD5
:100018000E280F281628901C12281328162880311D
:100028006A2080317E10090080311A287E10400134
:10003800803198284001980199019A013F30920037
:10004800D0309300FF309400FF307E01CE00F030B6
:10005800C3003730B800C401B901CF01BA01C501E6
:10006800D0013730BB00F030C600FF30D1003F3040
:10007800BC00F030C700FF30D2000D309D000800F2
:100088000130450190008F019101CF308D008C0126
:100098004E0190109A14A330F2000030F300803122
:1000A8009E208031C83045018E00080080318520AF
:1000B800803180311E20803180318F208031803125
:1000C8007820803180314420803108004E01901022
:1000D80070087104031971287228772871088A003A
:1000E80070080A0080310800803047018E00A63071
:1000F8008D0040308C0044011F08F33904389F00FC
:1001080008004F0196019701980199019A019B01F6
:100118009C019D010800623051018D008F01910101
:10012800023093009201080080315A2080319B28C8
:10013800803118287308F1007208F00008000800E0
:020000040001F9
:0A000E00EC3FFF3F9F3FFF3FFF3F25
:00000001FF
